:100000000C942A000C943F000C943F000C943F0089
:100010000C943F000C943F000C943F000C943F0064
:100020000C943F000C943F000C943F000C943F0054
:100030000C943F000C943F000C943F000C943F0044
:100040000C943F000C943F000C943F000C943F0034
:100050000C943F0011241FBECFE5D8E0DEBFCDBF1A
:1000600010E0A0E6B0E0E2EDF9E002C005900D92EC
:10007000A63CB107D9F70E9454020C94E7040C94F3
:10008000000041E050E062E070E083E090E00E9418
:100090003E038FE193E00197F1F700C0000040E0DC
:1000A00050E062E070E083E090E00E943E0308953B
:1000B000CF93C82F41E050E060E070E083E090E033
:1000C0000E943E0385B38F709C2F907F892B85BB48
:1000D0000E9441008FE39CE90197F1F700C0000006
:1000E00025B330E1C39FC0011124922F9F70892B4B
:1000F00085BB0E9441008FE39CE90197F1F700C0A6
:100100000000CF910895CF93C82F40E050E060E009
:1001100070E083E090E00E943E0385B38F709C2FD7
:10012000907F892B85BB0E9441008FE39CE901975A
:10013000F1F700C0000025B330E1C39FC0011124D6
:10014000922F9F70892B85BB0E9441008FE39CE911
:100150000197F1F700C00000CF91089581E00E945F
:100160008300089584B3806F84BB41E050E060E079
:1001700070E083E090E00E94C60241E050E061E060
:1001800070E083E090E00E94C60241E050E062E04F
:1001900070E083E090E00E94C60240E050E061E041
:1001A00070E083E090E00E943E0382E00E948300C2
:1001B00088E20E9483008CE00E94830086E00E9417
:1001C00083000E94AE002FEF80E792E02150804034
:1001D0009040E1F700C0000008950F931F93CF9364
:1001E000DF938C01C0E0D0E003C00E94580021964C
:1001F000F801EC0FFD1F80818111F7CFDF91CF91C6
:100200001F910F910895892B31F0862F8F70806C8C
:100210000E9483000895862F8F7080680E9483005B
:100220000895CF93DF93CDB7DEB7CA56D1090FB685
:10023000F894DEBF0FBECDBF29E0E0E6F0E0DE01BE
:10024000119601900D922A95E1F729E53FE43B874D
:100250002A8725E530E03D872C8729E0E9E6F0E0B4
:10026000DE011E9601900D922A95E1F721E1E2E769
:10027000F0E0DE01579601900D922A95E1F72FE00C
:10028000E3E8F0E0DE01989601900D922A95E1F7FF
:1002900025E0E2E9F0E0DE01D79601900D922A9583
:1002A000E1F72FE0E7E9F0E0DE01DC9601900D9246
:1002B0002A95E1F720E1E6EAF0E0DE01A55BBF4F19
:1002C00001900D922A95E1F720E1E6EBF0E0DE01E6
:1002D000A55ABF4F01900D922A95E1F7FC012081AC
:1002E000318124303105C9F44281538144305105B4
:1002F000A1F4448155814230510579F446815781FA
:100300004230510551F4408551854430510529F45E
:10031000CE0101960E94ED00BDC022303105D1F41E
:10032000FC014281538144305105A1F4448155813F
:100330004230510579F4468157814230510551F4DC
:10034000408551854230510529F4CE010A960E941C
:10035000ED00A0C024303105D1F4FC01428153816D
:1003600042305105A1F4448155814230510579F460
:10037000468157814230510551F4408551854230C4
:10038000510529F4CE010E960E94ED0083C0223063
:100390003105D1F4FC014281538144305105A1F46F
:1003A000448155814230510579F44681578142306C
:1003B000510551F4408551854430510529F4CE0151
:1003C00047960E94ED0066C02430310521F5FC01FE
:1003D0004281538144305105F1F4448155814430C8
:1003E0005105C9F44681578144305105A1F4408537
:1003F00051854430510579F4CE0188960E94ED0074
:1004000065E070E081E090E00E940301CE01C796B4
:100410000E94ED003FC022303105D1F4FC01428141
:10042000538143305105A1F4448155814330510536
:1004300079F4468157814230510551F44085518508
:100440004230510529F4CE01CC960E94ED0022C025
:1004500024303105D1F4FC01228133812330310570
:10046000A1F4248135812430310579F42681378146
:100470002230310551F480859185049731F4CE0105
:10048000855B9F4F0E94ED0005C0CE01855A9F4FAE
:100490000E94ED00C659DF4F0FB6F894DEBF0FBEC5
:1004A000CDBFDF91CF910895CF93DF93CDB7DEB766
:1004B0002A970FB6F894DEBF0FBECDBF0E94B200E0
:1004C00067E070E080E090E00E949F0200E010E0B2
:1004D00023C0C8010E94B2020E94B9020E94BD025C
:1004E000BC01990F880B990B0E94EE0328E638EEA9
:1004F0004FE95BE30E9452047801EE0CFF1C21E0FF
:1005000030E02C0F3D1FE20EF31E0E94B603F701F0
:10051000718360830F5F1F4F05301105D4F20E9475
:10052000AE00CE0101960E941101FFEF25EA3EE0E8
:10053000F15020403040E1F700C00000C7CF27B1A4
:100540000024969587950794969587950794982FFC
:10055000802D822B87B986B1682B66B986B18068F9
:1005600086B9089597B1907E97B997B1892B87B9CD
:10057000089586B1806486B90895349BFECF24B176
:1005800085B190E0982F8827822B0895452BC9F1DB
:1005900081309105A9F01CF4892B39F0089582303F
:1005A0009105C9F0039711F108952AB381E090E015
:1005B00002C0880F991F6A95E2F7822B8ABB0895C3
:1005C00027B381E090E002C0880F991F6A95E2F797
:1005D000822B87BB089524B381E090E002C0880F8E
:1005E000991F6A95E2F7822B84BB089521B381E0BD
:1005F00090E002C0880F991F6A95E2F7822B81BBB9
:10060000089581309105B1F01CF4892B39F00895DB
:1006100082309105D9F0039729F108952AB381E03A
:1006200090E002C0880F991F6A95E2F780958223B7
:100630008ABB089527B381E090E002C0880F991F1C
:100640006A95E2F78095822387BB089524B381E001
:1006500090E002C0880F991F6A95E2F78095822387
:1006600084BB089521B381E090E002C0880F991FF8
:100670006A95E2F78095822381BB0895452BC9F1E5
:1006800081309105A9F01CF4892B39F0089582304E
:100690009105C9F0039711F108952BB381E090E023
:1006A00002C0880F991F6A95E2F7822B8BBB0895D1
:1006B00028B381E090E002C0880F991F6A95E2F7A5
:1006C000822B88BB089525B381E090E002C0880F9B
:1006D000991F6A95E2F7822B85BB089522B381E0CA
:1006E00090E002C0880F991F6A95E2F7822B82BBC7
:1006F000089581309105B1F01CF4892B39F00895EB
:1007000082309105D9F0039729F108952BB381E048
:1007100090E002C0880F991F6A95E2F780958223C6
:100720008BBB089528B381E090E002C0880F991F29
:100730006A95E2F78095822388BB089525B381E00E
:1007400090E002C0880F991F6A95E2F78095822396
:1007500085BB089522B381E090E002C0880F991F05
:100760006A95E2F78095822382BB08950E94BD03BB
:100770006894B1110C944C0408950E94310488F0DF
:100780009F5798F0B92F9927B751B0F0E1F0660F55
:10079000771F881F991F1AF0BA95C9F714C0B13096
:1007A00091F00E944B04B1E008950C944B04672F24
:1007B000782F8827B85F39F0B93FCCF386957795C5
:1007C0006795B395D9F73EF49095809570956195AE
:1007D0007F4F8F4F9F4F0895E89409C097FB3EF4D9
:1007E00090958095709561957F4F8F4F9F4F99237E
:1007F000A9F0F92F96E9BB279395F69587957795FC
:100800006795B795F111F8CFFAF4BB0F11F460FFBB
:100810001BC06F5F7F4F8F4F9F4F16C0882311F013
:1008200096E911C0772321F09EE8872F762F05C027
:10083000662371F096E8862F70E060E02AF09A95C2
:10084000660F771F881FDAF7880F9695879597F9B7
:10085000089557FD9058440F551F59F05F3F71F0B0
:100860004795880F97FB991F61F09F3F79F0879517
:100870000895121613061406551FF2CF4695F1DFA0
:1008800008C0161617061806991FF1CF8695710530
:10089000610508940895E894BB2766277727CB0164
:1008A00097F908950E9465040C94D6040E94C80428
:1008B00038F00E94CF0420F0952311F00C94BF046F
:1008C0000C94C50411240C944C040E94290470F368
:1008D000959FC1F3950F50E0551F629FF001729FE5
:1008E000BB27F00DB11D639FAA27F00DB11DAA1FF4
:1008F000649F6627B00DA11D661F829F2227B00D41
:10090000A11D621F739FB00DA11D621F839FA00DCB
:10091000611D221F749F3327A00D611D231F849F1B
:10092000600D211D822F762F6A2F11249F57504072
:100930009AF0F1F088234AF0EE0FFF1FBB1F661FED
:10094000771F881F91505040A9F79E3F510580F0B6
:100950000C94BF040C944C045F3FE4F3983ED4F332
:10096000869577956795B795F795E7959F5FC1F75A
:10097000FE2B880F911D9695879597F9089597F905
:100980009F6780E870E060E008959FEF80EC089535
:1009900000240A941616170618060906089500245E
:1009A0000A9412161306140605060895092E0394D8
:1009B000000C11F4882352F0BB0F40F4BF2B11F44C
:1009C00060FF04C06F5F7F4F8F4F9F4F0895F89473
:0209D000FFCF57
:1009D20049204C4F5645205500474F4F44204A4F1F
:1009E20042005448495320495320544552524942E7
:1009F2004C4500574953482055204120484150500A
:100A020059004C4946450049274D20574154434817
:100A1200494E4720550049205245414C4C59204CE3
:100A22004F564520550043414E27542046494E44D7
:060A320020574F52440062
:00000001FF
